:020000040800F2
:1000000000C0002055390008ED170008EF17000860
:10001000F1170008F3170008F517000800000000AA
:10002000000000000000000000000000F7170008BA
:10003000F917000800000000FB170008FD17000872
:10004000A5390008A5390008A5390008A539000818
:10005000A5390008A5390008A5390008A539000808
:10006000A5390008A5390008A5390008A5390008F8
:10007000A5390008A5390008A5390008A5390008E8
:10008000A5390008A5390008A5390008A5390008D8
:10009000A5390008A5390008A5390008A5390008C8
:1000A000A5390008A5390008A5390008A5390008B8
:1000B000A53900080000000000000000A539000874
:1000C000A53900080000000000000000A539000864
:1000D00000000000A5390008A53900080000000054
:1000E000A5390008A5390008000000000000000044
:1000F0000000000000000000000000000000000000
:10010000000000000000000000000000A539000809
:100110000000000000000000A5390008A539000813
:10012000A5390008A5390008A5390008A539000837
:10013000A5390008000000000000000000000000D9
:10014000A5390008A5390008A5390008A539000817
:10015000A5390008A5390008A5390008A539000807
:10016000A5390008A5390008A539000800000000DD
:10017000A5390008A53900080000000000000000B3
:10018000A5390008A5390008A539000800000000BD
:1001C0000348044B834202D0034B03B118477047E6
:1001D0007800002078000020000000000548064953
:1001E0000B1AD90F01EBA301491002D0034B03B145
:1001F00018477047780000207800002000000000B9
:1002000010B5064C237843B9FFF7DAFF044B13B15E
:100210000448AFF300800123237010BD7800002054
:1002200000000000A839000808B5044B1BB10449C0
:100230000448AFF30080BDE80840CFE700000000AD
:100240007C000020A839000870B50D4E0D4D761BBE
:10025000B61006D00024013455F8043B9847A64256
:10026000F9D1094E094D761B03F09EFBB61006D05E
:100270000024013455F8043B9847A642F9D170BDDB
:10028000583A0008583A00085C3A0008583A000802
:10029000F0B4860746D0541E002A3CD0CAB20346AA
:1002A00002E014F1FF3436D303F8012B9D07F8D197
:1002B000032C29D9CDB245EA05250F2C45EA054581
:1002C00033D9A4F11006360903F1200707EB06170E
:1002D00003F1100242E9045542E902551032BA42D4
:1002E000F8D1721C14F00C0F03EB021204F00F068D
:1002F00013D0331F23F003030433134442F8045B89
:100300009342FBD106F003042CB1C9B21C4403F89C
:10031000011B9C42FBD1F0BC704734461346002CB5
:10032000F3D1F8E714460346C2E71A462646E0E74B
:1003300008B430B5002A9CB0044635DB4FF4027394
:1003400002910691ADF8143020A918D0013A0B465D
:100350000492079201911F9A4FF6FF7502A9ADF81A
:10036000165000F0B7F9421C01DA8B232360029B80
:1003700000221A701CB0BDE8304001B070470B4637
:100380000492079201914FF6FF751F9AADF816502F
:1003900002A900F09FF9431C01DA8B2323601CB0F3
:1003A000BDE8304001B070478B2202604FF0FF3053
:1003B000F5E700BF0CB430B5204B00299DB01C6898
:1003C00037DB4FF4027302900690ADF8143021A889
:1003D00019D001390346209A0491079101904FF6F4
:1003E000FF7502A92046ADF8165000F073F9421CC3
:1003F00001DA8B232360029B00221A701DB0BDE836
:10040000304002B0704703460491079101904FF6C7
:10041000FF75209AADF8165002A9204600F05AF94F
:10042000431C01DA8B2323601DB0BDE8304002B0CD
:1004300070478B2323604FF0FF30F5E7000000206A
:1004400090F800F06DE9024520F007016FF0000C14
:1004500010F0070491F820F040F049804FF00004BC
:100460006FF00700D1E9002391F840F000F1080097
:1004700082FA4CF2A4FA8CF283FA4CF3A2FA8CF3CF
:100480004BBBD1E9022382FA4CF200F10800A4FA36
:100490008CF283FA4CF3A2FA8CF3E3B9D1E904238A
:1004A00082FA4CF200F10800A4FA8CF283FA4CF3C1
:1004B000A2FA8CF37BB9D1E9062301F1200182FA7B
:1004C0004CF200F10800A4FA8CF283FA4CF3A2FA81
:1004D0008CF3002BC6D0002A04BF04301A4612BA8F
:1004E000B2FA82F2FDE8024500EBD2007047D1E992
:1004F000002304F00305C4F100004FEAC50514F021
:10050000040F91F840F00CFA05F562EA05021CBFF1
:1005100063EA050362464FF00004A9E72DE9F047BE
:100520008E681D46AE420C460B68174636D880468C
:10053000888910F4906F0ED1354618462A46394600
:1005400000F0D0FCA2682368961B2B44A6602360B1
:100550000020BDE8F087D1E9041606EB4606A3EBC0
:10056000010906EBD6766B1C76104B44B34232463B
:1005700084BF1E463246430512D51146404600F060
:100580006FFD824600B34A46216900F011FCA38941
:1005900023F4906343F08003A38106E02E46CCE76A
:1005A000404600F0C1FD824650B1A6EB09020AEBBD
:1005B00009036661C4F810A02360A2602E46BCE760
:1005C0002169404600F0F6FC0C23C8F80030A389EE
:1005D00043F04003A3814FF0FF30BAE72DE9F04F1D
:1005E000936883B09046002B6DD017688D68824663
:1005F0000C460868083743E0A38913F4906F2ED0A7
:10060000D4E9041505EB4505A0EB010B05EBD57509
:100610000BEB06006D100130A8422A4684BF054648
:100620002A465B0536D51146504600F019FD0028D4
:100630003AD05A462169019000F0BAFBA289019B89
:1006400022F4906242F08002A281A5EB0B0203EB40
:100650000B00656123612060A2603546B3465A46AF
:10066000494600F03FFCD8F80830A2682068551BC6
:1006700058449E1BA5602060C8F808601EB3083768
:1006800057E90296AB46002EF9D0AE42B4D23546B9
:10069000B346E4E7504600F047FD03460028D4D1B6
:1006A0002169504600F086FC0C23CAF80030A3896B
:1006B000002243F040034FF0FF30A381C8E901223C
:1006C00003B0BDE8F08F0020C8F8040003B0BDE817
:1006D000F08F00BF2DE9F04F90468A899FB0140635
:1006E0008B46029003D50A69002A00F00B8105931E
:1006F00030238DF8323098F800308E4E00212022C1
:100700000B918DF831200127002B00F08480252BE0
:1007100000F0F680454603E0252B00F08680254654
:100720006B786C1C002BF7D1B4EB080A73D04246EF
:10073000534659460298FFF7F1FE01306BD00B9BF0
:100740006A7853440B93002A65D000234FF0FF32A0
:1007500001340693CDE908338DF85B301C93079282
:1007600005E0069A07FA03F313432C460693254641
:10077000052215F8011B304600F0CAFAAA46831B71
:100780000028EED1069BD90644BF20228DF85B20BD
:1007900021781A0744BF2B228DF85B202A2948D1E3
:1007A000059A11680432002905927EDB099161786F
:1007B000A51C2E2956D0604C0322204600F0A8FA32
:1007C000002868D0001B069B402404FA00F0034375
:1007D000069305F10108297858488DF83010062253
:1007E00000F096FA002866D0554B002B56D005AB8A
:1007F00000935A46534B029806A9AFF300808146F6
:10080000B9F1FF3F07D00B9B4B440B9398F8003096
:10081000002B7FF47CAFBBF80C305B0654BF0B9809
:100820004FF0FF301FB0BDE8F08FB4EB080A8CD05A
:100830007DE7A1F13002092A88BFA246B9D8099BF9
:1008400001E02C460135297803EB830302EB4303D7
:10085000A1F13002092AAA46F3D92E2904F1020592
:100860000993A8D19AF801102A292ED1059B9AF84C
:1008700002101A6807920433002A05930AF103054F
:100880000AF1020337DB2C4C032220469A4600F083
:100890003FFA002896D1A84655469CE7059B0733AA
:1008A00023F0070308330593ADE7494243F0020301
:1008B000099106937BE705AB00935A46214B0298BA
:1008C00006A900F0D7F881469AE7A1F1300200238B
:1008D000092A079301D923E05546697803EB83037E
:1008E00002EB4303A1F13002092A05F1010AF3D911
:1008F000023507935FE74FF0FF329A4607925AE7B7
:10090000444622E74021039300F0AAFB039BCBF867
:100910000000CBF8100030B14022CBF81420E6E6FE
:10092000AA46013547E7029A0C2313604FF0FF30C7
:1009300078E700BF103A0008183A00081C3A00088F
:10094000000000001D0500082DE9F0470C46914607
:100950000A698968DDF820808A42B8BF0A46C9F86A
:10096000002094F8431006461F4611B10132C9F821
:100970000020236899065CD5D9F800200232C9F816
:100980000020236813F0060F19461DD1E1688A1A6A
:10099000002AD8BF194617DD04F1190A002505E021
:1009A000E368D9F800209B1AAB420CDD01235246C4
:1009B00039463046C047013005F10105F0D14FF00E
:1009C000FF30BDE8F087216894F84330003318BF4A
:1009D00001238A060AD5E1185A1C302081F8430009
:1009E000224494F8451082F84310023304F1430284
:1009F00039463046C0470130E1D02368A2682169FA
:100A000003F00603042B1DD08A4226DD4FF00009B7
:100A1000521A91441A34002501E04D451DDA012394
:100A2000224639463046C047013005F10105F4D170
:100A3000C5E713F0060F13D094F84330003318BF06
:100A40000123D3E7D9F80000E3688A42A3EB00034F
:100A500023EAE379DCDC002BDCDC0020BDE8F08756
:100A6000E168D9F800208A1A002AD8BF194693DC19
:100A7000AAE700BF2DE9F0430C46097E85B06E2938
:100A8000064617460C98984604F1430E6DD039D9A6
:100A9000732900F0F68044D9752900F00481782983
:100AA00040F0118178232268DFF858C284F845307D
:100AB0000168150651F8043B016040F1A180D1079F
:100AC00044BF42F020022260002B00F093801022ED
:100AD000002184F843106068A0600028C0F2C8803C
:100AE000216821F004012160002B40F0A380002840
:100AF00040F0C0807546082A00F0AC80AEEB0503DC
:100B0000236141E0632900F0E5801AD8002938D03C
:100B1000582940F0D88084F845102268DFF8E8C1F1
:100B2000C6E76F2900F0BF80702940F0CC802268B2
:100B3000DFF8D0C142F020027823226084F84530EB
:100B4000B6E7642902D0692940F0BD8022680368B5
:100B5000110603F1040557D5196805600B460029F5
:100B600059DBDFF8A4C10A22B5E70368226861698E
:100B70001D1D056015061B6802D4500600F1BD80DE
:100B80001960002375462361CDF800803B4603AA17
:100B900021463046FFF7D8FE013020D02A4623698F
:100BA00039463046C047013019D022680398E368BF
:100BB000920719D51A1A002A16DD04F11909002521
:100BC00004E0E36803981A1AAA420DDD01234A469D
:100BD00039463046C047013005F10105F1D14FF0EB
:100BE000FF3005B0BDE8F0839842B8BF184605B0A5
:100BF000BDE8F083226822F020022260102267E71D
:100C0000500648BF9BB25AE75106A5D5B3F900304C
:100C100005601946A3E76168A1602D200029C3F192
:100C2000000384F8430002DB22F004022260DFF8B4
:100C3000D8C00A22754600E00B46B3FBF2F102FB76
:100C4000113093421CF8000005F8010DF4D2082A77
:100C50007FF454AF2368DB077FF550AF62682369E8
:100C60009A423FF74BAF302305F8013C013D45E781
:100C7000002BDFD19CF8003084F8423004F14205AB
:100C800039E703686268191D01601D680021284664
:100C900000F03EF8002832D0401B60602061002345
:100CA00084F8433070E72268036812F0800F03F184
:100CB00004051AD01B6805606F290CBF08220A22A0
:100CC000DFF844C004E7012384F84210236104F1F3
:100CD0004205E4E703681A68191D0123016004F165
:100CE000420584F842202361D9E712F0400F0DBF7E
:100CF0001B6805601B880560DEE7198041E76068B6
:100D0000CCE700BF383A0008243A00080000000091
:100D100001F0FF01102A2BDB10F0070F08D010F8AC
:100D2000013B013A8B422DD010F0070F42B3F6D1B0
:100D3000F0B441EA012141EA014122F007047FF0C9
:100D400000070023F0E80256083C85EA010586EA20
:100D5000010685FA47F5A3FA87F586FA47F6A5FA5C
:100D600087F68EB9EED1F0BC01F0FF0102F0070268
:100D700032B110F8013B013A83EA010313B1F8D113
:100D80000020704701387047002D06BF35460338F4
:100D9000073815F0010F07D1013015F4807F02BF2D
:100DA000013015F4C03F0130F0BC0138704700BF7E
:100DB000844641EA000313F003036DD1403A41D366
:100DC00051F8043B40F8043B51F8043B40F8043B25
:100DD00051F8043B40F8043B51F8043B40F8043B15
:100DE00051F8043B40F8043B51F8043B40F8043B05
:100DF00051F8043B40F8043B51F8043B40F8043BF5
:100E000051F8043B40F8043B51F8043B40F8043BE4
:100E100051F8043B40F8043B51F8043B40F8043BD4
:100E200051F8043B40F8043B51F8043B40F8043BC4
:100E300051F8043B40F8043B51F8043B40F8043BB4
:100E4000403ABDD2303211D351F8043B40F8043B54
:100E500051F8043B40F8043B51F8043B40F8043B94
:100E600051F8043B40F8043B103AEDD20C3205D364
:100E700051F8043B40F8043B043AF9D2043208D05C
:100E8000D2071CBF11F8013B00F8013B01D30B88CE
:100E900003806046704700BF082A13D38B078DD0AC
:100EA00010F003038AD0C3F10403D21ADB071CBF7E
:100EB00011F8013B00F8013B80D331F8023B20F8E8
:100EC000023B7BE7043AD9D3013A11F8013B00F821
:100ED000013BF9D20B7803704B7843708B788370A9
:100EE000604670478842F0B40DD98B1883420AD906
:100EF000841832B1224613F8014D02F8014D99428F
:100F0000F9D1F0BC70470F2A0ED80346541E002AB0
:100F1000F7D001340C44013B11F8012B03F8012FE9
:100F2000A142F9D1F0BC704740EA01039B073BD1D5
:100F3000A2F110073F0901F1200606EB071601F1A7
:100F4000100300F1100453F8105C44F8105C53F8DF
:100F50000C5C44F80C5C53F8085C44F8085C53F8EB
:100F6000045C44F8045C1033B34204F11004EAD189
:100F70007B1C1B0112F00C0F194402F00F050344F7
:100F800015D0043DAD0803EB850C1C1F0E4656F82A
:100F9000047B44F8047F6445F9D10135AD002B444E
:100FA000294402F00302B1E7541E0346B1E72A4682
:100FB000ACE700BF00293CD038B551F8043C0C1F09
:100FC000002BB8BFE418054600F0E6F8234B1A687A
:100FD0002AB1A2420DD921686018824223D06260F2
:100FE00028461C60BDE8384000F0D8B8A34203D8BA
:100FF0001A465368002BF9D111685018A04219D035
:1010000024D821686018834206D063605460284663
:10101000BDE8384000F0C2B8D3E900030144636082
:1010200021605460F3E7D2E900020144626021606C
:10103000D6E7704720680144501883421160E6D11A
:10104000D3E90003014453601160E0E70C232B60F7
:101050002846BDE8384000F0A1B800BF9400002049
:10106000F8B5CD1C25F0030508350C2D38BF0C252F
:10107000002D064633DBA94231D82A4F00F08CF808
:101080003A6852B113685B1B04D43FE023685B1BD2
:1010900029D522465468002CF8D1796800293BD024
:1010A0002946304600F066F8431C28D0C41C24F0C2
:1010B0000304A04205D0211A304600F05BF801304D
:1010C0001DD02560304600F069F804F10B0020F0D7
:1010D0000700231DC21A01D01B1AA350F8BD0C2211
:1010E00032600020F8BD0B2B05D8A242636811D0F6
:1010F0005360E7E7144623601C442560E2E70C23B5
:101100003046336000F04AF80020F8BD0B2BF1D8D0
:10111000536814463B60D5E7304600F02BF8786002
:10112000BEE700BF9400002009B3F8B51446CAB169
:1011300006460D4600F034F8A04202D32F4638464A
:10114000F8BD21463046FFF78BFF07460028F6D052
:1011500022462946FFF72CFE30462946FFF72AFF94
:101160003846F8BD2746FFF725FF3846F8BD11463B
:10117000FFF776BF38B5074C0023054608462360C5
:1011800000F016F8431C00D038BD2368002BFBD0BC
:101190002B6038BDC4010020704700BF704700BFFE
:1011A00051F8043C181F002BBCBF0B58C0187047E7
:1011B000044A05491368002B08BF0B461844106009
:1011C000184670479C000020C801002053B94AB956
:1011D000002908BF00281CBF4FF0FF314FF0FF303F
:1011E00000F06EB9ADF1080C6DE904CE00F006F820
:1011F000DDF804E0DDE9022304B070472DE9F04793
:10120000089D04468C46002B40F083808A42174696
:1012100047D9B2FA82F242B1C2F1200024FA00F0BA
:101220009140974040EA010C94404FEA1748230C44
:10123000BCFBF8F61FFA87FE08FB16C143EA014320
:1012400006FB0EF1994209D9FB1806F1FF3080F038
:101250001981994240F21681023E3B445B1AA4B2C6
:10126000B3FBF8F008FB103344EA034400FB0EFE26
:10127000A64509D93C1900F1FF3380F00581A64548
:1012800040F2028102383C4440EA0640A4EB0E04DE
:1012900000261DB1D4400023C5E900433146BDE816
:1012A000F08702B9FFDEB2FA82F2002A50D1CB1BDE
:1012B0004FEA174E1FFA87F80126B3FBFEFC210CFC
:1012C0000EFB1C3341EA034108FB0CF38B4207D9A8
:1012D00079180CF1FF3002D28B4200F2E98084468B
:1012E000C91AA3B2B1FBFEF00EFB101143EA014490
:1012F00008FB00F8A04507D93C1900F1FF3302D2E2
:10130000A04500F2D9801846A4EB080440EA0C403E
:10131000BFE78B4209D9002D00F0B1800026C5E956
:10132000000130463146BDE8F087B3FA83F6002E5F
:101330004AD18B4202D3824200F2B880841A61EB18
:10134000030101208C46002DA8D0C5E9004CA5E77B
:10135000C2F1200320FA03F6974001FA02F04FEAA7
:10136000174ED9403043030CB1FBFEF61FFA87F845
:101370000EFB161143EA014306FB08F1994204FAF9
:1013800002F409D9FB1806F1FF3C80F08D809942E8
:1013900040F28A80023E3B445B1A81B2B3FBFEF00E
:1013A0000EFB103341EA034100FB08F38B4207D9DF
:1013B000791800F1FF3C73D28B4271D9023839445D
:1013C000CB1A40EA064678E7C6F1200C03FA06F489
:1013D00022FA0CF31C4320FA0CF701FA06F34FEA49
:1013E000144E21FA0CF11F433B0CB1FBFEF91FFA1E
:1013F00084F80EFB191143EA014109FB08FA8A45FA
:1014000002FA06F200FA06F308D9611809F1FF3072
:1014100048D28A4546D9A9F102092144A1EB0A0123
:10142000BFB2B1FBFEF00EFB101147EA014700FB13
:1014300008F8B84507D9E71900F1FF312ED2B845B1
:101440002CD90238274440EA0940A7EB0807A0FB43
:1014500002894F45C64649461AD317D05DB1B3EB52
:101460000E0267EB010707FA0CFCF2404CEA02029D
:10147000F740C5E9002700263146BDE8F0872E4633
:1014800028460BE70646E9E61846FDE64345E5D261
:10149000B8EB020E69EB04010138DFE70846D2E73A
:1014A00060468DE78146B9E7664675E730464AE70C
:1014B000ACF1020C394413E702383C4424E700BF86
:1014C000704700BF70B588B000240394049405945D
:1014D000069407941E4BDA6C42F00402DA64DA6C6C
:1014E00002F004020092009ADA6C42F00102DA641F
:1014F000DA6C02F001020192019ADA6C42F0020207
:10150000DA64DB6C03F002030293029B2246802123
:101510004FF0904001F08AFE0E4D224608212846E9
:1015200001F084FE8023039301260496059406941B
:1015300003A94FF0904001F0B5FD082303930496F2
:101540000594069403A9284601F0ACFD08B070BDCF
:10155000001002400004004810B50346074C084A3A
:1015600032212046FEF726FF2046FEF769FF64235E
:1015700082B22146034802F00EF910BD0801002096
:10158000C03900083C01002070B500252E4612E04D
:101590000F4C204600F0EAFDC821204600F0DAFAA0
:1015A000204600F031FB0B4B18601B681E440A20DC
:1015B00000F06CFE0135072DEADD3446002E05DB18
:1015C000E4102046FFF7C8FF204670BDF41DF7E782
:1015D000A00000200401002008B5FFF7D5FF044B50
:1015E0001B68984201DD012008BD0020FCE700BF18
:1015F0006400002010B50C4C204600F0B7FDC82157
:10160000204600F0A7FA204600F0FEFA074C2060C2
:101610002068FFF7A1FF2268054B1B689A4201DD95
:10162000012010BD0020FCE7A000002004010020E4
:101630006400002008B5012280214FF0904001F0A5
:10164000F5FD4FF47A7000F021FE002280214FF06A
:10165000904001F0EBFD41F2883000F017FE08BD2C
:1016600008B5FFF7B9FF00B908BDFFF7C3FF0028B1
:10167000FAD0FFF7DFFFF8E772B6FEE700B587B0F4
:101680000023009301930293039304930593184856
:10169000184A026043608360C360036104224261B0
:1016A000037643760122C26180F820308362C362F0
:1016B00080F83030436380F8383000F05DF990B93D
:1016C0000D4B009306230193002302937F22039284
:1016D0000422049205936946054800F099FA20B95E
:1016E00007B05DF804FBFFF7C7FFFFF7C5FF00BFBA
:1016F000A0000020000004500001802108B50B4824
:101700000B4B03604FF4E133436000238360C360FD
:1017100003610C2242618361C3610362436202F090
:10172000DEF800B908BDFFF7A7FF00BF3C010020AD
:101730000044004000B597B04422002105A8FEF700
:10174000A7FD0023009301930293039304934FF4A6
:10175000007001F081FD002831D101F06DFD1B4AC0
:10176000D2F8903023F01803C2F890301423059378
:10177000012307930B9300220C9260220D92022208
:101780000F92109311931023129307231393149223
:10179000159205A800F030FE98B90F23009303239B
:1017A000019300230293039304930121684601F0FF
:1017B00059F940B901F06EFC17B05DF804FBFFF772
:1017C0005BFFFFF759FFFFF757FF00BF0010024014
:1017D00008B500F039FDFFF7ADFFFFF773FEFFF727
:1017E0004DFFFFF78BFFFFF73BFFFCE7FEE7FEE750
:1017F000FEE7FEE7FEE770477047704708B500F068
:1018000033FD08BD82B00A4B1A6E42F001021A661F
:101810001A6E02F001020092009A9A6D42F0805214
:101820009A659B6D03F080530193019B02B0704752
:101830000010024010B59CB0044600211791189189
:1018400019911A911B91542202A8FEF721FD2268DA
:101850001E4B9A4201D01CB010BD4FF4804302933E
:101860004FF08053149301230393049310230593A3
:10187000072306930223079308934FF0807309937D
:1018800002A801F093FAF0B9114BDA6C42F400525D
:10189000DA64DA6C02F400520092009ADA6C42F0D8
:1018A0000102DA64DB6C03F001030193019B18234E
:1018B00017930B2318930023199317A94FF0904007
:1018C00001F0F0FBC7E7FFF7D7FEDDE700000450AB
:1018D0000010024070B59CB0044600211791189189
:1018E00019911A911B91542202A8FEF7D1FC22688B
:1018F0001F4B9A4201D01CB070BD022302930023FB
:101900000B9302A801F052FA00282ED1194B9A6DC0
:1019100042F400329A659A6D02F400320092009A05
:10192000DA6C42F00102DA64DB6C03F0010301932C
:10193000019B04231793022618960025199503246A
:101940001A9407231B9317A94FF0904001F0AAFBAC
:101950004FF400431793189619951A941B9417A9DE
:101960004FF0904001F09EFBC5E7FFF785FECDE705
:10197000004400400010024030B583B000230193C2
:10198000002800F0DA800446436D13B323689A6898
:1019900012F0005F05D09A6822F0204222F03F0248
:1019A0009A602268936813F0805F1FD1936823F0D8
:1019B000104323F03F0343F080539360604B1B6858
:1019C0009B09604AA2FB03239B0901335B0001933F
:1019D00009E0FFF72FFF0023A36584F85030D5E717
:1019E000019B013B0193019B002BF9D12268936875
:1019F00013F0805F09D1636D43F010036365A36D3D
:101A000043F00103A365012000E00020936813F078
:101A1000040300D00123616D11F0100F40F08680A7
:101A2000002B40F08380636D23F4817343F0020345
:101A30006365936813F0010F0BD1434B9B6813F060
:101A4000010F06D1636841498A6822F47C1213436E
:101A50008B60627E636B43EA4233E2681343A268A1
:101A6000134394F8202043EA0243012A3ED0A26A9D
:101A700022B102F47072E16A0A4313432168CD680F
:101A8000334A2A401343CB6021688B6813F0040368
:101A900000D001238A6812F0080200D00122B3B9F5
:101AA000AAB9227E94F830305B0043EA8232CB68D8
:101AB00023F4804323F002031343CB6094F83830BF
:101AC000012B18D02268136923F0010313612369E5
:101AD000012B22D02268136B23F00F031363636D75
:101AE00023F0030343F00103636524E0626A013AD3
:101AF00043EA4243BBE721680B6923F4FF6323F009
:101B00000403E26B256C2A43656C2A43A56C2A43C7
:101B1000134343F001030B61D9E721680B6B23F0FA
:101B20000F03E269013A13430B63D8E7636D43F097
:101B300010036365012003B030BD0120FBE700BF47
:101B400070000020632D3E05000004500003045087
:101B500007C0F0FFF8B504460E464569082D05D0CC
:101B60000368DB6813F0010F1ED1042500F088FB29
:101B7000074623681A682A421CD1B6F1FF3FF8D005
:101B800000F07EFBC31BB34201D8002EF1D12368C5
:101B90001B682B42EDD1636D43F0040363650023A2
:101BA00084F85030032004E0436D43F02003436584
:101BB0000120F8BD626D42F400726265DA6812F4C9
:101BC000406F11D1627E7AB91A6812F0080F0BD0FB
:101BD000626D22F480726265626D12F4805F03D1DF
:101BE000626D42F001026265DA68082D06D012F4D7
:101BF000804F07D10C221A600020DAE708221A6011
:101C00000020D6E70020D4E70368186C7047000076
:101C1000F0B482B00022019290F85020012A00F026
:101C20002E820346012280F850200268926812F04A
:101C3000040F0AD0426D42F02002426501200022CA
:101C400083F8502002B0F0BC70474A68052A09D8D2
:101C5000023A032A00F28E80DFE802F002828588D1
:101C60000C224A601E684D680C6830362A0A9200C1
:101C700002F00C02B05805F01F051F27AF4020EA04
:101C80000700C4F38464AC402043B0501C68A268D1
:101C900012F0040200D00122A06810F0080000D069
:101CA000012052BB48BB0E688D681434720E92003E
:101CB00002F00402A058C6F304560727B74020EAF2
:101CC0000700B5402843A0504C691868C268C2F3A9
:101CD000C102520004FA02F20D69042D4DD00E68C3
:101CE000603050F82570AC4C3C4006F0F84632436A
:101CF000144344F0004440F825401868826812F00C
:101D0000010F16D10A68CD68D0F8B040C2F31206B0
:101D100024EA060405F01806A04DF5402A40C2F357
:101D200012022243C0F8B020C8689D4A904200F0D9
:101D30008B800A689B490A4200F09D819A49896814
:101D400001F0E0749948824200F04781984882424D
:101D500000F06A819748824200F07A8100206EE7A5
:101D600012224A607EE718224A607BE74FF48072B5
:101D70004A6077E706224A6074E7026E046EC4F395
:101D800084640A68C2F312057DBBC2F38462944284
:101D900033D01C68626E606EC0F384600A68C2F360
:101DA00012057DBBC2F38462904233D01C68A26EE0
:101DB000A06EC0F384600A68C2F312057DBBC2F353
:101DC0008462904233D01C68E26EE06EC0F384609F
:101DD0000A68C2F312057DBBC2F3846290428CD1C3
:101DE000E26E22F00042E26687E792FAA2F212B1B6
:101DF000B2FA82F2CBE72022C9E7026E22F000425B
:101E00000266C6E792FAA2F212B1B2FA82F2CBE708
:101E10002022C9E7626E22F000426266C6E792FAAB
:101E2000A2F212B1B2FA82F2CBE72022C9E7A26E87
:101E300022F00042A266C6E792FAA2F212B1B2FA0A
:101E400082F2CBE72022C9E71D680A68C2F31206B6
:101E5000002E35D1900E013000F01F0009288CBFF4
:101E600000200120002862D0002E38D1940E0134C9
:101E7000A40604F0F844002E3DD1900E013000F08D
:101E80001F070120B8400443002E42D1920E0132B8
:101E900002F01F0202EB4202120522438C68143545
:101EA000500E800000F004002E58C2F304520727A1
:101EB000974026EA070604FA02F232432A5038E72E
:101EC00092FAA2F048B1B0FA80F0013000F01F00A1
:101ED00009288CBF00200120C4E72020F5E792FAF2
:101EE000A2F434B1B4FA84F40134A40604F0F84442
:101EF000C1E72024F8E792FAA2F040B1B0FA80F0EE
:101F0000013000F01F00012707FA00F0BBE7202096
:101F1000F6E792FAA2F242B1B2FA82F2013202F08C
:101F20001F0202EB42021205B7E72022F6E7CEB904
:101F3000940E0134A40604F0F844FEB9900E01306A
:101F400000F01F070120B8400443AEBB900E0130E3
:101F500000F01F0000EB40021E3A120542F0007232
:101F600022439BE792FAA2F434B1B4FA84F4013428
:101F7000A40604F0F844E0E72024F8E792FAA2F07F
:101F800040B1B0FA80F0013000F01F00012707FADD
:101F900000F0D9E72020F6E700F0FF03FFFF07007D
:101FA00000007F400000088000030450000052C77A
:101FB000000084CB0100008092FAA2F25AB1B2FA7A
:101FC00082F0013000F01F0000EB40021E3A1205C3
:101FD00042F00072C4E72020F3E711F4000F7FF411
:101FE000B5AE1968274A914201D0002027E644F493
:101FF00000022548816821F0E0710A438260234A8B
:10200000126892092249A1FB02129209013202EBE5
:1020100042029200019202E0019A013A0192019A71
:10202000002AF9D100200AE611F0807F7FF492AEF9
:102030001968144A914201D0002000E644F08072F1
:102040001148816821F0E0710A4382600020F6E5C2
:1020500011F4800F11D119680A4A914201D0002071
:10206000EDE544F480020848816821F0E0710A43FC
:1020700082600020E3E50020E1E50020DFE50220AA
:10208000E0E500BF00000450000304507000002091
:10209000632D3E0530B583B00023019303689A6831
:1020A00012F0010F57D1044699682C4A11421ED1F3
:1020B0009A6822F0004222F03F0242F001029A6048
:1020C000274B9B6813F4000F1BD0264B1B689B0902
:1020D000254AA2FB03239B09013303EB43039B0027
:1020E0000193019B6BB1019B013B0193F9E7436DA8
:1020F00043F010034365836D43F0010383650120C2
:102100002AE000F0BDF8054623681A6812F0010FB6
:102110001FD19A6812F0010F07D19A6822F000428D
:1021200022F03F0242F001029A6000F0A9F8431B3E
:10213000022BE9D923681B6813F0010FE4D1636D0A
:1021400043F010036365A36D43F00103A365012011
:1021500002E0002000E0002003B030BD3F0000801E
:102160000003045070000020632D3E0503689B6847
:1021700013F0040F3CD110B5044690F85030012BF9
:1021800038D0012380F85030FFF784FF60BB636DC7
:1021900023F4706323F0010343F480736365636D7C
:1021A00013F4805F1DD0A36D23F00603A36523689D
:1021B0001C221A60002384F850302268D36813F080
:1021C000007F05D0636D23F4405343F4805363656F
:1021D000936823F0004323F03F0343F0040393602C
:1021E00010BD0023A365E2E7002384F85030F7E731
:1021F000022070470220F3E7104B1B780BB9012037
:10220000704710B504464FF47A70B0FBF3F30C4AF4
:102210001068B0FBF3F001F0ADF868B90F2C01D9EC
:1022200001200AE0002221464FF0FF3001F06EF855
:10223000044B1C60002000E0012010BD680000205D
:10224000700000206C00002010B5032001F04CF855
:102250000020FFF7D1FF10B10124204610BD044635
:10226000FFF7D0FAF9E70000034B1B78034A116827
:102270000B441360704700BF68000020C0010020BD
:10228000014B1868704700BFC001002038B50446F4
:10229000FFF7F6FF0546B4F1FF3F02D0044B1B7871
:1022A0001C44FFF7EDFF401BA042FAD338BD00BF2E
:1022B0006800002030B583B00446204B9B6D13F0BE
:1022C000805F0BD000F0C0FFB0F5007F17D0802CEE
:1022D0001FD82DD0702C2DD000211BE0174DAB6DD9
:1022E00043F08053AB65AB6D03F080530193019BCA
:1022F00000F0AAFFAB6D23F08053AB65E4E7802CC0
:1023000003D9A02C03D9022104E0002102E001211D
:1023100000E003210A4A136823F007030B4313600C
:10232000136803F007038B4206D1002003B030BDD1
:102330000221EFE70121EDE70120F7E7001002405D
:1023400000200240284A9368D26802F0030213F08A
:102350000C030AD00C2B06D0042B1FD0082B20D046
:102360000020024610E0012AF6D11F4A126812F03E
:10237000080F0CD11C4AD2F89420C2F303221B4947
:1023800051F8222043B100200C2B0DD07047164A83
:102390001268C2F30312F2E71046F5E71448002270
:1023A000F2E714480022EFE70F4BDB6803F003036A
:1023B000022B16D0032B00D10E4A0B4BD868C0F36A
:1023C00002100130D968C1F3062102FB01F2B2FB11
:1023D000F0F2D868C0F3416001304000B2FBF0F089
:1023E000D4E7034AE9E700BF00100240E0390008E3
:1023F0000024F40000127A00002800F01C83F0B5DD
:1024000083B00446AE4B9D6805F00C05DE6806F00F
:102410000306036813F0100F5AD0E5B10C2D18D045
:10242000A369002B00F0BB80A54A136843F00103A9
:102430001360FFF725FF0746A14B1B6813F0020F3F
:1024400040F09A80FFF71CFFC01B0228F4D903203C
:10245000FCE2012EE4D19A4B1B6813F0020F03D06B
:10246000A369002B00F0E982206A954B1B6813F0EA
:10247000080F5BD0924B1B6803F0F00398425CD8C6
:102480008F4B1A6842F008021A601A6822F0F002B4
:10249000216A0A431A605A6822F47F42E16942EADB
:1024A00001225A60002D60D0FFF74CFF844B9B68DF
:1024B000C3F30313834AD35C03F01F03D840824B5A
:1024C0001860824B1868FFF797FE002840F0BE8224
:1024D000236813F0010F00F08180082D75D00C2DBA
:1024E00071D06368B3F5803F00F09780B3F5A02FFB
:1024F00000F09980724B1A6822F480321A601A68D0
:1025000022F480221A606368002B00F09980FFF7A4
:10251000B7FE07466A4B1B6813F4003F5ED1FFF716
:10252000AFFEC01B6428F5D903208FE2644BD3F8BB
:1025300094301B0903F0F003A0E7FFF7BBFE00286F
:1025400040F07D825E4B1A6842F008021A601A68F9
:1025500022F0F002216A0A431A605A6822F47F428C
:10256000E16942EA01225A609EE7206AFFF7A2FE73
:10257000002899D0012069E2514B1A6842F0080204
:102580001A601A6822F0F002216A0A431A605A6837
:1025900022F47F42E16942EA01225A6098E7484A00
:1025A000136823F001031360FFF76AFE0746444BEC
:1025B0001B6813F0020F8BD0FFF762FEC01B0228CE
:1025C000F5D9032042E2032E8BD13D4B1B6813F457
:1025D000003F03D06368002B00F03382236813F0C0
:1025E000020F4FD0042D3CD00C2D38D0E368002BC7
:1025F00077D0334A136843F480731360FFF740FECB
:1026000006462F4B1B6813F4806F61D1FFF738FE2D
:10261000801B0228F5D9032018E2294A136843F4E5
:10262000803313606FE703F18043A3F53C331A68EE
:1026300042F480221A601A6842F480321A6062E71B
:10264000FFF71EFE07461E4B1B6813F4003FC5D064
:10265000FFF716FEC01B6428F5D90320F6E1022E11
:10266000C4D1174B1B6813F4806F03D0E368002BB1
:1026700000F0E981124A536823F0F853216943EAD4
:1026800001635360236813F0080F55D06369002B72
:102690003BD00B4AD2F8943043F00103C2F8943097
:1026A000FFF7EEFD0646064BD3F8943013F0020F09
:1026B00042D1FFF7E5FD801B0228F4D90320C5E1D4
:1026C00000100240C8390008700000206C00002093
:1026D000AC4A536823F0F853216943EA016353601D
:1026E000D0E7A84A136823F480731360FFF7C8FD8E
:1026F0000646A44B1B6813F4806FC3D0FFF7C0FDE0
:10270000801B0228F5D90320A0E19E4AD2F894301C
:1027100023F00103C2F89430FFF7B2FD0646994B4F
:10272000D3F8943013F0020F06D0FFF7A9FD801BF9
:102730000228F4D9032089E1236813F0040F7AD02A
:10274000904B9B6D13F0805F36D18E4B9A6D42F0AB
:1027500080529A659B6D03F080530193019B012683
:10276000894B1B6813F4807F28D0A368012B39D0D4
:10277000052B3FD0834BD3F8902022F00102C3F801
:102780009020D3F8902022F00402C3F89020A36890
:10279000002B3DD0FFF774FD07467A4BD3F89030FD
:1027A00013F0020F46D1FFF76BFDC01B41F28833D7
:1027B0009842F2D9032049E10026D1E7724A136812
:1027C00043F480731360FFF75BFD07466E4B1B6895
:1027D00013F4807FC9D1FFF753FDC01B0228F5D940
:1027E000032033E1674AD2F8903043F00103C2F886
:1027F0009030CCE7634BD3F8902042F00402C3F84A
:102800009020D3F8902042F00102C3F89020BEE758
:10281000FFF736FD07465B4BD3F8903013F0020FFD
:1028200008D0FFF72DFDC01B41F288339842F2D942
:1028300003200BE1E6B9236813F0200F35D0636A5B
:10284000E3B1504AD2F8983043F00103C2F898300F
:10285000FFF716FD06464B4BD3F8983013F0020FE6
:1028600023D1FFF70DFD801B0228F4D90320EDE0F2
:10287000444A936D23F080539365DCE7414AD2F8D4
:10288000983023F00103C2F89830FFF7F9FC0646B0
:102890003C4BD3F8983013F0020F06D0FFF7F0FC52
:1028A000801B0228F4D90320D0E0A36A002B00F09B
:1028B000CC80022B17D00C2D00F0CC80314A13684D
:1028C00023F080731360FFF7DBFC04462D4B1B687D
:1028D00013F0007F00F0A880FFF7D2FC001B022855
:1028E000F4D90320B2E0274BDB6803F00301E26A6E
:1028F000914209D00C2D00F0AB80224B1B6813F0E5
:10290000806F2BD00120A1E003F07002216B013910
:10291000B2EB011FEED103F4FE42616BB2EB012F6B
:10292000E8D103F07842A16BB2EBC16FE2D103F4BE
:10293000C001E26B5208013AB1EB425FDAD103F019
:10294000C063226C5208013AB3EB426FD2D10D4BF7
:102950001B6813F0007F4DD0002077E0094A136810
:1029600023F080731360FFF78BFC0546054B1B6853
:1029700013F0007F0AD0FFF783FC401B0228F5D933
:10298000032063E00010024000700040324AD36828
:1029900032491940E36A206B013843EA0013606B47
:1029A00043EA0023E06B4008013843EA4053206CBF
:1029B0004008013843EA4063A06B43EAC0630B431D
:1029C000D360136843F080731360D36843F080735F
:1029D000D360FFF755FC04461F4B1B6813F0007FC4
:1029E00006D1FFF74DFC001B0228F5D903202DE08E
:1029F00000202BE0184B1A6842F080721A60DA68E7
:102A000042F08072DA60FFF73BFC0446124B1B6811
:102A100013F0007F06D1FFF733FC031B022BF5D91F
:102A2000032013E0002011E00B4AD1680C4B0B404F
:102A3000D36000200AE001207047012006E0012059
:102A400004E0012002E0012000E0002003B0F0BD1E
:102A50000120FBE70120F9E7001002408C809D0176
:102A6000FCFFEEFE002800F0AF8070B50D46044676
:102A7000594B1B6803F007038B420BD2564A13686D
:102A800023F007030B431360136803F007038B4223
:102A900040F09C80236813F0020F0CD0A2684F4BCB
:102AA0009B6803F0F0039A4205D94C498B6823F0E8
:102AB000F0031A438A60236813F0010F39D063686A
:102AC000032B09D0022B26D063BB444A126812F0B4
:102AD000020F06D1012076E0404A126812F0007F12
:102AE00076D03E498A6822F0030213438B60FFF7D9
:102AF000C7FB0646394B9B6803F00C036268B3EBD7
:102B0000820F16D0FFF7BCFB801B41F2883398423E
:102B1000F0D9032057E0314A126812F4003FE0D1A7
:102B2000012050E02D4A126812F4806FD9D10120A3
:102B300049E0236813F0020F0CD0A268274B9B6872
:102B400003F0F0039A4205D224498B6823F0F00386
:102B50001A438A60204B1B6803F00703AB420AD973
:102B60001D4A136823F007032B431360136803F017
:102B70000703AB422ED1236813F0040F06D0174A87
:102B8000936823F4E063E1680B439360236813F0D8
:102B9000080F07D0114A936823F46053216943EA70
:102BA000C1039360FFF7CEFB0C4B9B68C3F3031389
:102BB0000B4AD35C03F01F03D8400A4B18600A4B42
:102BC0001868FFF719FB70BD012070470120FAE774
:102BD0000120F8E70120F6E7002002400010024043
:102BE000C8390008700000206C000020014B1868F4
:102BF000704700BF7000002008B5FFF7F7FF054BD6
:102C00009B68C3F30223044AD35C03F01F03D8403C
:102C100008BD00BF00100240D839000808B5FFF712
:102C2000E5FF054B9B68C3F3C223044AD35C03F062
:102C30001F03D84008BD00BF00100240D83900086B
:102C4000F8B504460F46584BDB6813F0030F18D055
:102C5000554BDB6803F003030268934202D0012561
:102C60002846F8BD002A00F09D804F4BDB68C3F377
:102C7000021301334268934201D00125F0E7002599
:102C800009E00368022B56D0032B5BD0012B41D007
:102C90000125002DE4D1444A136823F080631360BA
:102CA000FFF7EEFA0646404B1B6813F0006F05D0A5
:102CB000FFF7E6FA831B022BF5D90325002DCFD1B0
:102CC000002F4DD138490B6923F0784323F4FE439C
:102CD000A068E268D20642EA002213430B61324A3E
:102CE000136843F080631360FFF7CAFA06462E4B61
:102CF0001B6813F0006F05D1FFF7C2FA831B022B8C
:102D0000F5D90325002DABD1274A1369A1690B43DF
:102D10001361A5E7244A126812F0020F1ED0224860
:102D2000C26822F073026168013943EA0113134358
:102D3000C3600025ADE71C4A126812F4806FEED123
:102D40000125A6E7184A126812F4003FE7D1164A97
:102D5000126812F4802FE2D101259AE7012598E745
:102D6000012F0FD01048026922F0C06222F4FE4207
:102D7000A16863695B08013B5B0643EA01231343D7
:102D80000361ACE70848026922F4C00222F4FE4263
:102D9000A16823695B08013B5B0543EA01231343F8
:102DA00003619CE701255BE7001002402DE9F0413B
:102DB00082B00446036813F4006F25D0C36BB3F5EB
:102DC000000F06D0B3F5400F12D04BB101263746A5
:102DD0001CE0AE4AD36843F48033D360002708E098
:102DE00000210430FFF72CFF074610B106460DE026
:102DF0000027A64AD2F8883023F44003E16B0B4346
:102E0000C2F88830002601E000263746236813F414
:102E1000003F6BD09D4B9B6D13F0805F4CD19B4B63
:102E20009A6D42F080529A659B6D03F08053019336
:102E3000019B4FF00108964A136843F480731360B6
:102E4000FFF71EFA0546924B1B6813F4807F05D1ED
:102E5000FFF716FA401B0228F5D90327002F40D1AF
:102E60008A4BD3F8903013F4407315D0226D9A42F8
:102E700012D0864AD2F8903023F44073D2F89010E2
:102E800041F48031C2F89010D2F8901021F48031D2
:102E9000C2F89010C2F8903013F0010F0FD1002F3C
:102EA00040F0C980794AD2F8903023F44073216D04
:102EB0000B43C2F8903015E04FF00008BBE7FFF776
:102EC000DFF90546714BD3F8903013F0020FE6D1CD
:102ED000FFF7D6F9401B41F288339842F2D9032715
:102EE000DDE73E46B8F1000F40F0A780236813F0FD
:102EF000010F08D0654AD2F8883023F00303216A15
:102F00000B43C2F88830236813F0020F08D05F4AE1
:102F1000D2F8883023F00C03616A0B43C2F8883082
:102F2000236813F0200F08D0584AD2F8883023F4D1
:102F30004063A16A0B43C2F88830236813F4007F12
:102F400008D0524AD2F8883023F44023616B0B43F7
:102F5000C2F88830236813F4806F08D04B4AD2F847
:102F6000883023F44013A16B0B43C2F888302368E8
:102F700013F0400F08D0454AD2F8883023F440536C
:102F8000E16A0B43C2F88830236813F4807F08D0CD
:102F90003E4AD2F8883023F44033216B0B43C2F809
:102FA0008830236813F4005F0FD0384AD2F8883095
:102FB00023F04063216C0B43C2F88830236CB3F1DB
:102FC000006F40D0B3F1806F42D0236813F4802F9C
:102FD0000FD02E4AD2F8883023F04063616C0B4347
:102FE000C2F88830636CB3F1006F39D0B3F1806FF1
:102FF0003BD0236813F4804F0CD0244AD2F8883099
:1030000023F04053A16C0B43C2F88830A36CB3F19A
:10301000805F32D0236813F4004F08D01B4AD2F8E7
:10302000883023F08043E16C0B43C2F8883030468F
:1030300002B0BDE8F0813E4654E7144A936D23F098
:103040008053936552E7D36843F48013D360BCE7A1
:103050000121201DFFF7F4FD0028B6D00646B4E795
:10306000D36843F48013D360C3E70121201DFFF729
:10307000E7FD0028BDD00646BBE70221201DFFF773
:10308000DFFD0028C6D00646C4E700BF001002409E
:1030900000700040024A136843F004031360704755
:1030A00000100240F0B482B000235BE086685F004D
:1030B0000325BD4026EA0506CD68BD403543856041
:1030C000466826EA04064D68C5F300149C40344364
:1030D000446055E0DD08083550F8257003F007041A
:1030E000A6000F24B44027EA04070C69B4403C430F
:1030F00040F8254058E0022400E00024B4403C435E
:103100000235464E46F82540454CA568D44325EA8D
:1031100002064F6817F4801F01D042EA0506404DB1
:10312000AE60ED6804EA05064F6817F4001F01D091
:1031300042EA05063A4DEE606D6804EA05064F68FE
:1031400017F4003F01D042EA0506354D6E602D6848
:103150002C404E6816F4803F01D042EA0504304A04
:10316000146001330A6832FA03F453D001249C40FE
:103170002240F6D04D6805F00305013D012D95D99B
:103180004C6804F00304032C09D0C5685E000324D6
:10319000B44025EA04058C68B4402C43C4604C68F4
:1031A00004F00304022C95D005685E000324B440AB
:1031B00025EA04054C6804F00304B4402C43046081
:1031C0004C6814F4403FCCD0164C256E45F00105F8
:1031D0002566246E04F001040194019C9D08AE1C38
:1031E0000E4C54F8267003F00304A6000F24B440DC
:1031F00027EA0407B0F1904F3FF47FAF0A4CA0429A
:1032000006D004F58064A0423FF475AF072475E74B
:10321000012473E702B0F0BC704700BF000001401A
:103220000004014000100240000400480AB181611E
:103230007047816270470000024A136843F480734C
:103240001360704700700040024B186800F4C060C3
:10325000704700BF00700040B0F5007F0FD01F4BDB
:103260001B6803F4C063B3F5806F34D01B4A136846
:1032700023F4C06343F48063136000207047174B4E
:103280001B6803F4C063B3F5007F20D0134A1368B2
:1032900023F4C06343F400731360114B1A683223A4
:1032A00003FB02F30F4AA2FB03239B0C013300E054
:1032B000013B0A4A526912F4806F01D0002BF7D10A
:1032C000064B5B6913F4806F03D100207047002028
:1032D0007047032070470020704700BF0070004017
:1032E0007000002083DE1B43074AD36823F4E063A9
:1032F0001B041B0C000200F4E060034343F0BF63B7
:1033000043F40033D360704700ED00E030B4174B56
:10331000DB68C3F30223C3F10704042C28BF042491
:103320001D1D062D18D9033B4FF0FF3505FA04F497
:1033300021EA0401994005FA03F322EA0303194341
:1033400000280BDB0901C9B200F1604000F56140C3
:1033500080F8001330BC70470023E5E700F00F0051
:103360000901C9B2024B1954F4E700BF00ED00E0B7
:1033700014ED00E00138B0F1807F0AD2064B5860AE
:10338000064AF02182F823100020986007221A6074
:1033900070470120704700BF10E000E000ED00E042
:1033A000D0B5044601688368026913434269134338
:1033B000C269134308688B4A024013430B602268BA
:1033C000536823F44053E1680B435360A1692268BA
:1033D000854B9A4201D0236A1943936823F43063E2
:1033E0000B4393602268814B9A421CD0804B9A42D7
:1033F0002DD07D4B9A4243D010237B498A4260D026
:10340000E069B0F5004F00F08B80082B00F2E480FB
:10341000DFE813F0B300C900B100E200CC00E20025
:10342000E200E200CF0003F55843D3F8883003F000
:103430000303032B09D8DFE803F002043806012355
:10344000DBE70423D9E70823D7E71023D5E703F503
:10345000E633D3F8883003F00C030C2B0ED8DFE8EA
:1034600003F0070D0D0D090D0D0D260D0D0D0B00B3
:103470000023C2E70423C0E70823BEE71023BCE70C
:1034800003F5C833D3F8883003F44063B3F5006F15
:103490000FD005D87BB1B3F5806F0ED10423ACE714
:1034A000B3F5406F0BD10823A7E70223A5E702235A
:1034B000A3E70223A1E700239FE710239DE7102342
:1034C0009BE7082B78D8DFE803F008772977267781
:1034D000777705004FF4004003E0FFF78DFB0028ED
:1034E0006CD0626802EB4203834269D8B0EB023FC2
:1034F00068D80023070E06025008301847F1000173
:10350000FDF764FEA0F540723A4B9A425CD82368FE
:10351000D860002043E0FEF715FFE0E73648E0E71B
:10352000082B53D8DFE803F00721055224525252EA
:103530000B00314803E0FFF75FFB002848D06268CA
:10354000530803EB4000B0FBF2F0A0F110024FF67D
:10355000EF739A423ED883B223F00F03C0F34200C8
:1035600018432368D860002019E0FFF757FBE4E711
:10357000FEF7E8FEE1E7204802E0FFF73DFB68B315
:10358000636800EB5300B0FBF3F0A0F110024FF6BC
:10359000EF739A4224D8236880B2D86000200023B9
:1035A0006366A366D0BDFFF739FBE8E7FEF7CAFE06
:1035B000E5E74FF40040E3E70120F0E70020EEE705
:1035C0000120ECE70120EAE70120E8E70120E6E737
:1035D0000020E4E70120E2E70120E0E70020DEE749
:1035E0000120DCE7F369FFEF008000400038014074
:1035F00000440040FFFC0F000024F400436A13F075
:10360000010F06D00268536823F40033816A0B432C
:103610005360436A13F0020F06D00268536823F424
:103620008033C16A0B435360436A13F0040F06D022
:103630000268536823F48023016B0B435360436A91
:1036400013F0080F06D00268536823F40043416B5F
:103650000B435360436A13F0100F06D0026893685F
:1036600023F48053816B0B439360436A13F0200F64
:1036700006D00268936823F40053C16B0B43936038
:10368000436A13F0400F0AD00268536823F4801392
:10369000016C0B435360036CB3F5801F0BD0436A7E
:1036A00013F0800F06D00268536823F40023816C66
:1036B0000B43536070470268536823F4C003416CA6
:1036C0000B435360EBE72DE9F84305460F461646DA
:1036D0009946DDF820802C68E46937EA04030CBFC2
:1036E00001240024B44253D1B8F1FF3FF3D0FEF7D8
:1036F000C7FDA0EB090040452DD8B8F1000F2AD036
:103700002B681A6812F0040FE5D0DA6912F4006F22
:10371000E1D04FF400621A622A6852E8003F23F4B5
:10372000D07342E800310029F6D12A6802F108037B
:1037300053E8003F23F00103083242E8003100293A
:10374000F3D12023AB67EB67C5F88030002385F801
:10375000743003201DE02A6852E8003F23F4D07340
:1037600042E800310029F6D12A6802F1080353E843
:10377000003F23F00103083242E800310029F3D171
:103780002023AB67EB67002385F87430032000E04B
:103790000020BDE8F8832DE9F04182B01E46836F1A
:1037A000202B56D104460D469046002955D0002ABC
:1037B00055D090F87430012B53D0012380F8743029
:1037C0000023C0F8803021238367FEF759FD0746A8
:1037D000A4F85080A4F85280A368B3F5805F05D0A8
:1037E0004FF00008002384F8743014E0236913B10B
:1037F0004FF00008F6E7A8460025F3E738F8023B4B
:103800002268C3F308031385B4F8522092B2013A38
:1038100092B2A4F85220B4F852309BB273B1009621
:103820003B46002280212046FFF74DFFD8B9002DEE
:10383000E4D0236815F8012B1A85E5E700963B468E
:10384000002240212046FFF73EFF70B92023A367E6
:1038500000E0022002B0BDE8F0810120FAE701207B
:10386000F8E70220F6E70320F4E70320F2E730B59B
:1038700083B004460023C0F88030FEF701FD054602
:1038800023681B6813F0080F0DD123681B6813F021
:10389000040F16D12023A367E3670020206684F875
:1038A000740003B030BD6FF07E43009303460022E6
:1038B0004FF400112046FFF706FF0028E5D0032053
:1038C000EFE76FF07E4300932B4600224FF4800118
:1038D0002046FFF7F8FE0028DCD00320E1E768B3BC
:1038E00010B50446836F03B32423A36722681368CB
:1038F00023F0010313602046FFF752FD012813D087
:10390000636ABBB92268536823F49043536022680A
:10391000936823F02A0393602268136843F001033D
:1039200013602046FFF7A3FF10BD80F87430FDF749
:10393000D1FFD9E72046FFF761FEE3E7012070479A
:10394000034AD2F8883043F47003C2F888307047D5
:1039500000ED00E0DFF834D0FFF7F2FF0C480D492E
:103960000D4A002302E0D458C4500433C4188C42DA
:10397000F9D30A4A0A4C002301E013600432A24240
:10398000FBD3FCF761FCFDF723FFFEE700C000203E
:103990000000002078000020683A0008780000202D
:1039A000C8010020FEE70000F8B500BFF8BC08BC65
:1039B0009E467047F8B500BFF8BC08BC9E467047ED
:1039C00025640D0A00000000000000000000000057
:1039D00001020304060708090000000001020304B5
:1039E000A0860100400D0300801A060000350C007F
:1039F00040420F0080841E0000093D0000127A0042
:103A00000024F40000366E010048E801006CDC027E
:103A1000232D302B20000000686C4C006566674544
:103A20004647000030313233343536373839414279
:103A300043444546000000003031323334353637D8
:103A400038396162636465660000000000000000B0
:083A5000ACD7FF7F010000006C
:083A5800290200080000000033
:083A6000010200080000000053
:103A6800040000200000000000000000000000002A
:103A7800000000000000000000000000000000003E
:103A8800000000000000000000000000000000002E
:103A9800000000000000000000000000000000001E
:103AA800000000000000000000000000000000000E
:103AB80000000000000000000000000000000000FE
:103AC800000000009A010000010000001000000042
:083AD80000093D0000000000A0
:040000050800395561
:00000001FF
